:040000000BEF00F012
:100008003082FACF06F0FBCF07F07DED04F077EFF2
:0200180006F0F0
:100600000033322C060C44657369726564203E2009
:1006100000000000000041637475616C20203E20E2
:10062000000000000000504F542056616C7565209A
:100630003E2000000000507265737320456E7465A3
:100640007200000000000000000000000000000038
:10065000000000000000000000000000000000009A
:10066000000000000000000000000000000000008A
:10067000000000000000000000000000000000007A
:10068000000000000000000000000000000000006A
:10069000000000000000000000000000000000005A
:1006A000000000000000526561647920746F2067CB
:1006B0006F0050726F626C656D000000000E226E5C
:1006C000000E236E000E246E010E216E59EC06F012
:1006D00038EC06F0000E196E000ED5EC06F02EC0B8
:1006E00019F02FC01AF00EEC06F0020E94EC06F092
:1006F000000EDBEC05F0000E196E0C0ED5EC06F0CA
:100700002350DDEC04F0010E196E0C0ED5EC06F052
:100710002450DDEC04F02850D8A41FD02950D8A4D0
:100720001CD0F9D728A05ED0010E216E010EDBECA3
:1007300005F0C2809E9C56D028A054D0000E216E99
:10074000000EDBEC05F0C2904DD028A04BD0000E7F
:10075000216E000EDBEC05F045D02150000AD8B424
:10076000E1D7010AD8B4E8D7F0D7000E196E0C0E05
:10077000D5EC06F02350DDEC04F0010E196E0C0EE2
:10078000D5EC06F02450DDEC04F0010E29D0000E6B
:10079000196E0C0ED5EC06F02250DDEC04F0020EC2
:1007A0008B6E9E9C28B222C023F0C4CF22F0224040
:1007B000E8423F0B226E320E226402D0320E226ECD
:1007C000C28218D0000E196E000ED5EC06F0AEEC09
:1007D00006F02CC019F02DC01AF00EEC06F0050E34
:1007E0008B6E08D02150000AD8B4BFD7010AD8B404
:1007F000CED7E8D7000E286E000E296E8CD7176E64
:1008000017C015F0153A0F0E15168C501518FE0B63
:1008100015188C6E17C015F0050E166ED89015328F
:10082000162EFCD715468C501518FD0B15188C6E1E
:1008300017C015F0060E166ED8901532162EFCD77E
:10084000154615468C501518FB0B15188C6E156A3D
:1008500017AE01D0152A1546154615468C501518A9
:10086000F70B15188C6E14B002D08C9801D08C88C0
:10087000030EE82EFED78C8A030EE82EFED78C9A44
:10088000510EE82EFED700D017B002D08C9001D0C8
:100890008C8017C015F0D890153215468C5015185D
:1008A000FD0B15188C6E17C015F0D8901532D89026
:1008B0001532154615468C501518FB0B15188C6E05
:1008C00017C015F0D8901532D8901532D89015323F
:1008D0001546154615468C501518F70B15188C6ED5
:1008E000030EE82EFED78C8A030EE82EFED78C9AD4
:1008F000510EE82EFED700D012000600E9CF08F016
:10090000EACF09F0E1CF0AF0E2CF0BF0D9CF0CF03B
:10091000DACF0DF0F3CF0EF0F4CF0FF0F6CF10F0EA
:10092000F7CF11F0F8CF12F0F5CF13F0F2BAF2A42E
:1009300026D064EC05F0A00E026E000E016EEBEC0A
:1009400006F0F2942B2A090E2B6404D0010E296EB6
:10095000000E2B6E2A2A640E2A18D8A410D082AE5C
:1009600002D0010E01D0000EFF0A056E05320532DD
:10097000825005187F0B0518826E000E2A6E13C078
:10098000F5FF12C0F8FF11C0F7FF10C0F6FF0FC04F
:10099000F4FF0EC0F3FF0DC0DAFF0CC0D9FF0BC08F
:1009A000E2FF0AC0E1FF09C0EAFF08C0E9FF07C093
:1009B000FBFF06C0FAFF309211001F6E1FC014F03B
:1009C000156A000E176E0A0E166EA3EC05F0145091
:1009D0001E6E1FC014F0156A000E176E0A0E166EFA
:1009E00022EC05F014501F6E1FC014F0156A000EA3
:1009F000176E0A0E166EA3EC05F014501D6E1FC084
:100A000014F0156A000E176E0A0E166E22EC05F031
:100A100014501F6E1FC014F0156A000E176E0A0ED8
:100A2000166EA3EC05F014501C6E1C50300FF4EC45
:100A300006F01D50300FF4EC06F01E50300FF4ECB1
:100A400006F01200000E196E17AE06D0166C171EB7
:100A5000D8B0172A010E196E15AE06D0146C151EEB
:100A6000D8B0152A010E191A000E1B6E000E1A6E50
:100A700016501710D8B41CD0010E186E04D0D890A0
:100A800016361736182A17AEFAD7D8901A361B36EC
:100A90001650145C17501558D8A005D01650145E87
:100AA0001750155A1A80D89017321632182EEDD7D3
:100AB0001950D8B404D01A6C1B1ED8B01B2A1AC007
:100AC00014F01BC015F0120030D08150D8B41200C1
:100AD000010E266E000E256E81CF27F01200815088
:100AE0002718D8A407D0252A0A0E25641200020E62
:100AF000266E1200000E266E12008150D8A412003D
:100B0000030E266E120027C028F0000E266E000E7F
:100B1000256E000E276E1200000E266E000E256E4A
:100B2000000E276E000E286E12002650000AD8B460
:100B3000CCD7010AD8B4D3D7030AD8B4DED7010A78
:100B4000D8B4E1D7E9D7000E196E15AE06D0146CF3
:100B5000151ED8B0152A010E196E17AE04D0166CEA
:100B6000171ED8B0172A16501710D8B418D0010E77
:100B7000186E04D0D89016361736182A17AEFAD742
:100B80001650145C17501558D8A004D01650145E97
:100B90001750155AD89017321632182EF1D719500F
:100BA000D8B404D0146C151ED8B0152A14C014F093
:100BB00015C015F01200206EAEEC06F0000E196E96
:100BC000000ED5EC06F02050200D060EF324196E11
:100BD000060EF4201A6E0EEC06F0010E196E000ED1
:100BE000D5EC06F020501E6E1F6AD8901E361F36B8
:100BF0001E3A1F3AF00E1F161E500F0B1F12F00E5A
:100C00001E16100E1E26000E1F22060E1E24196E22
:100C1000060E1F201A6E0EEC06F01200000E1D6E5E
:100C200013D01D50010D19C01BF01AC01CF0F35059
:100C30001B26F4501C221BC0F6FF1CC0F7FF080047
:100C4000F550F4EC06F01D2A1D50010D19C01BF0E3
:100C50001AC01CF0F3501B26F4501C221BC0F6FFD8
:100C60001CC0F7FF0800F5500009D8B41200D9D70E
:100C70009550C00B956EE00E1A6E6A0EE82EFED7E8
:100C80001A2EFCD7000E1B6E040E1B6401D00ED072
:100C90001B50010D010EF324F66E060EF420F76EC4
:100CA0000800F550FBEC06F01B2AEED7AEEC06F080
:100CB00012009368000E946E8B68030E94EC06F09D
:100CC000000E8B6E900EC5EC06F0A00E156E000E99
:100CD000146EE2EC06F0000EC26E0E0EC16E130E24
:100CE000C06E9E9CC290010E926EF28E120000EEBB
:100CF00023F0090EEE6AE806FDE1040EF66E0E0E14
:100D0000F76E000EF86E00EE2CF010EE04F0090005
:100D1000F5CFEEFFE550E150FAE130903092000E51
:100D2000F86E00015EEF03F0156E000E166E11D026
:100D3000000E176E180E176401D00AD0000E146E44
:100D4000540EE82EFED7142EFCD700D0172AF2D767
:100D5000162A1550165CD8B01200EAD7010EFBEC2B
:100D600006F00D0E196EC30EE82EFED7192EFCD715
:100D700000F0020EFBEC06F00D0E196EC30EE82E0D
:100D8000FED7192EFCD700F01200146E14507F0B02
:100D9000D56E000ED76E000ED66EF29414AE02D051
:100DA000F28A01D0F29AD58E12001A6E1950D8A488
:100DB00002D0800E01D0C00E196E19501A24FBEC1F
:100DC00006F0120014C016F015C017F017C0D7FFB8
:100DD00016C0D6FF120001C003F002C004F004C028
:100DE000D7FF03C0D6FF1200186E010E146E185004
:100DF000FFEC03F01200186E000E146E1850FFEC9A
:080E000003F01200B206A60681
:020000040020DA
:08000000FFFFFFFFFFFFFFFF00
:020000040030CA
:0E000000FF021F1EFF8181FF0FC00FE00F40A7
:00000001FF
