:040000000BEF00F012
:100008006482FACF40F0FBCF41F0A8ED06F061EF33
:020018000AF0EC
:100600000033322C060C44657369726564203E2009
:1006100000000000000041637475616C20203E20E2
:10062000000000000000504F542056616C7565209A
:100630003E2000000000507265737320456E7465A3
:100640007200000000000000000000000000000038
:10065000000000000000000000000000000000009A
:10066000000000000000000000000000000000008A
:10067000000000000000000000000000000000007A
:10068000000000000000000000000000000000006A
:10069000000000000000000000000000000000005A
:1006A000000000000000526561647920746F2067CB
:1006B0006F0050726F626C656D000000000E0001EB
:1006C000916F900E00018D6FD00E00018E6F030EA2
:1006D00000018F6F010E0001906F3DEC09F049ECB5
:1006E0000BF03BEC0AF0000E0001856F000ED9EC18
:1006F0000AF09BC085F09CC086F009EC0AF0020E5F
:1007000084EC0AF0000E87EC09F0000E0001856F02
:100710000C0ED9EC0AF000019251E9EC07F0010E41
:100720000001856F0C0ED9EC0AF000019351E9EC41
:1007300007F09D84F28E00019751D8A426D00001C5
:100740009851D8A422D0F7D7000197A18AD0010EE2
:100750000001906F010E87EC09F0C2809E9C81D051
:10076000000197A17ED0000E0001906F000E87EC73
:1007700009F0C29076D0000197A173D0000E00015D
:10078000906F000E87EC09F06CD000019051000AC8
:10079000D8B4DAD7010AD8B4E3D7EDD7000E0001F8
:1007A000856F0C0ED9EC0AF000019251E9EC07F0CC
:1007B000010E0001856F0C0ED9EC0AF00001955175
:1007C00000019611D8B417D08DC080F08EC081F092
:1007D0008FC082F095C083F096C084F00001856BD5
:1007E000EEEC08F0000180510001936F000E000153
:1007F000966F000E956F00019351E9EC07F08D8024
:1008000039D08D829E9C000197B391C092F0C4CFE5
:1008100091F000019141E8423F0B0001916F320ECF
:100820000001916503D0320E0001916F000E0001AE
:10083000856F0C0ED9EC0AF000019151E9EC07F03C
:10084000C28218D0000E0001856F000ED9EC0AF0AC
:10085000A7EC0AF099C085F09AC086F009EC0AF07E
:1008600009D000019051000AD8B498D7010AD8B431
:10087000C8D7E8D7000E0001976F000E0001986FEF
:100880005AD722C026F0276A286A2134263601E387
:10089000278026502B6E25C026F0276A286A24342C
:1008A000263601E3278026502A6E2B50D8B40BD071
:1008B0002A502B5CD8B00ED02B5000082A24266E6C
:1008C000180E266407D023C020F024C021F025C0D4
:1008D00022F012002A50D8B40BD02B502A5CD8B08A
:1008E0000ED02A5000082B24266E180E266407D03E
:1008F00020C020F021C021F022C022F01200060EFC
:10090000296E22BE298E25BE298C218EFF0E20162F
:10091000FF0E2116000E2216248EFF0E2316FF0E48
:100920002416000E25162A502B5CD8B01BD0D89068
:100930002336243625362A062B502A18D8B40DD053
:10094000290629C026F0070E2616D8B406D0EFD700
:10095000D8902232213220322B2A2A502B18D8B498
:100960001FD0F6D72B502A5CD8B01AD0D89020369A
:10097000213622362B062B502A18D8B40DD0290642
:1009800029C026F0070E2616D8B406D0EFD7D89087
:100990002532243223322A2A2A502B18D8A4F7D7FA
:1009A00029AE0CD0FF0E201AFF0E211AFF0E221ABC
:1009B000010E2026000E2122000E222229AC0CD08E
:1009C000FF0E231AFF0E241AFF0E251A010E2326EE
:1009D000000E2422000E2522000E296E2050232610
:1009E000215024222250252225AE0ED0FF0E231A9C
:1009F000FF0E241AFF0E251A010E2326000E2422B4
:100A0000000E2522010E296E23C001F024C002F041
:100A100025C003F02BC004F029C005F046EC08F017
:100A200001C020F002C021F003C022F0120000013A
:100A3000836F83C081F00001813B0F0E81178C50C2
:100A400000018119FE0B81198C6E83C081F0050EA7
:100A50000001826F0001D89081330001822FFAD704
:100A6000000181478C5000018119FD0B81198C6EAA
:100A700083C081F0060E0001826F0001D89081339F
:100A80000001822FFAD70001814781478C50000175
:100A90008119FB0B81198C6E0001816B83AF02D031
:100AA0000001812B00018147814781478C50000163
:100AB0008119F70B81198C6E000180B102D08C98DE
:100AC00001D08C88030EE82EFED78C8A030EE82E08
:100AD000FED78C9A510EE82EFED700D0000183B1CC
:100AE00002D08C9001D08C8083C081F00001D8901E
:100AF0008133000181478C5000018119FD0B811960
:100B00008C6E83C081F00001D89081330001D890B1
:100B100081330001814781478C5000018119FB0B13
:100B200081198C6E83C081F00001D890813300015F
:100B3000D89081330001D8908133000181478147EB
:100B400081478C5000018119F70B81198C6E030EBF
:100B5000E82EFED78C8A030EE82EFED78C9A510E13
:100B6000E82EFED700D012002EC030F0316A326A73
:100B70002D34303601E3318030503A6E3A50D8A4EB
:100B800009D0000E2C6E000E2D6E000E2E6E000E83
:100B90002F6E1200170E306E2CC031F02DC032F0C7
:100BA0002EC033F03028346E04D0D8903332323235
:100BB0003132342EFAD73150356E2D8EFF0E2C1671
:100BC000FF0E2D16000E2E162C50366E2D50376E41
:100BD0002E50386E396A8E0E3A5E3AAE16D03A50C2
:100BE000800A8F0FD8B009D0000E2C6E000E2D6E2B
:100BF000000E2E6E000E2F6E1200D8903932383251
:100C0000373236323A3EF9D715D0170E3A640FD044
:100C1000000E2C6E000E2D6E000E2E6E000E2F6E2E
:100C20001200D89036363736383639363A063A50CA
:100C3000D8A4F7D73550D8B408D0391E381E371E7F
:100C4000366C000E37223822392236C02CF037C0DD
:100C50002DF038C02EF039C02FF0120010C014F063
:100C6000156A166A0F34143601E315801450176E96
:100C70001750D8A407D0000E0E6E000E0F6E000E97
:100C8000106E120013C014F0156A166A123414366E
:100C900001E3158014501C6E1C50D8A407D0000E20
:100CA0000E6E000E0F6E000E106E12001C507B0FA9
:100CB000172610C01CF013501C1A800E1C160F8E25
:100CC000128EFF0E1116FF0E1216000E1316000ED6
:100CD000186E000E196E000E1A6E070E1B6E0EA017
:100CE00006D0115018261250192213501A22D890EB
:100CF00010320F320E32D8901136123613361B2EA8
:100D0000EED7090E1B6E0EA006D0115018261250F9
:100D1000192213501A22D89010320F320E32D89066
:100D20001A32193218321B2EEED718C001F019C032
:100D300002F01AC003F017C004F01CC005F046EC26
:100D400008F001C00EF002C00FF003C010F0120056
:100D50000600E9CF42F0EACF43F0E1CF44F0E2CF22
:100D600045F0D9CF46F0DACF47F0F3CF48F0F4CFD3
:100D700049F0F6CF4AF0F7CF4BF0F8CF4CF0F5CF73
:100D80004DF0F2BAF2A42BD0B10E026EE00E016E5D
:100D900040EC0BF0F294C9EC09F0632A090E63648D
:100DA00009D0010E0001986F000E636E20EC07F071
:100DB00059C0BBFF602A640E6018D8A410D084A468
:100DC00002D0010E01D0000EFF0A3E6E3E463E46A6
:100DD00084503E18FB0B3E18846E000E606E9DB46E
:100DE0009EA410D09E94BF503F6E3E6ABE503E24DB
:100DF0000001956F000E3F200001966F000ECF6E30
:100E0000000ECE6E4DC0F5FF4CC0F8FF4BC0F7FF93
:100E10004AC0F6FF49C0F4FF48C0F3FF47C0DAFFFD
:100E200046C0D9FF45C0E2FF44C0E1FF43C0EAFF2E
:100E300042C0E9FF41C0FBFF40C0FAFF64921100CD
:100E4000000E3B6E000E3C6E000E3D6E57C058F01B
:100E500000019351000800019225576E59C05AF0C5
:100E600054C011F055C012F056C013F05750C0ECEA
:100E70000AF009C00EF00AC00FF00BC010F02EEC03
:100E800006F00EC020F00FC021F010C022F04EC0BE
:100E900011F04FC012F050C013F05850C0EC0AF0DF
:100EA00009C00EF00AC00FF00BC010F02EEC06F0D7
:100EB0000EC01DF00FC01EF010C01FF011EC0BF0A3
:100EC0001DC023F01EC024F01FC025F041EC04F02B
:100ED00020C03BF021C03CF022C03DF03BC023F0DD
:100EE0003CC024F03DC025F05A50FFEC0AF009C088
:100EF00020F00AC021F00BC022F041EC04F020C029
:100F00002CF021C02DF022C02EF0B4EC05F02C50B6
:100F1000596E1200000E0001856F000183AF08D0EA
:100F20000001826D831FD8B0832B010E0001856FF5
:100F3000000181AF08D00001806D811FD8B0812BE6
:100F4000010E0001851B000E0001876F000E866FE9
:100F50000001825100018311D8B42CD0010E000190
:100F6000846F06D00001D890823783370001842B2C
:100F7000000183AFF7D70001D8908637873700018B
:100F800082510001805D0001835100018159D8A088
:100F90000AD0000182510001805F000183510001ED
:100FA000815B000186810001D89083338233000188
:100FB000842FE1D7000185510001D8B405D000018C
:100FC000866D871FD8B0872B86C080F087C081F0E0
:100FD000120000018B6F8BC080F00001816B000E4E
:100FE0000001836F0A0E826F9DEC08F000018051B2
:100FF00000018A6F8BC080F00001816B000E000140
:10100000836F0A0E826F8AEC07F0000180510001A5
:101010008B6F8BC080F00001816B000E0001836F2D
:101020000A0E826F9DEC08F0000180510001896F6B
:101030008BC080F00001816B000E0001836F0A0EEF
:10104000826F8AEC07F00001805100018B6F8BC02A
:1010500080F00001816B000E0001836F0A0E826F29
:101060009DEC08F0000180510001886F000188515B
:10107000300F23EC0BF000018951300F23EC0BF003
:1010800000018A51300F23EC0BF012000450D8B449
:1010900005D0015002100310D8A40CD0000E016E30
:1010A000000E026E000E036E1200042AD890033266
:1010B00002320132000E0114066E000E0214076E99
:1010C000FE0E0314086E065007100810D8B40CD09A
:1010D000ECD7042A010E0126000E0222000E032284
:1010E000D890033202320132000E0114066E000E57
:1010F0000214076EFF0E0314086E06500710081046
:10110000D8B406D0E6D70406D890013602360336A6
:1011100002BE03D0020E0460F6D704A0029ED8904F
:101120000432045003120550D8A4038E01C001F00C
:1011300002C002F003C003F01200000E0001856F30
:10114000000181AF08D00001806D811FD8B0812BD4
:10115000010E0001856F000183AF05D00001826D93
:10116000831FD8B0832B0001825100018311D8B4B2
:1011700026D0010E0001846F06D00001D89082377E
:1011800083370001842B000183AFF7D70001825120
:101190000001805D0001835100018159D8A008D071
:1011A000000182510001805F000183510001815BD9
:1011B0000001D890833382330001842FE7D70001E8
:1011C00085510001D8B405D00001806D811FD8B0D1
:1011D000812B80C080F081C081F01200000E0001E0
:1011E000866F000E0001876F000E0001886F0001FE
:1011F00083510001841100018511D8B437D0010E4C
:101200000001896F07D00001D89083378437853774
:101210000001892B000185AFF6D70001D8908637F1
:1012200087378837000183510001805D00018451B8
:10123000000181590001855100018259D8A00ED0CA
:10124000000183510001805F000184510001815B36
:10125000000185510001825B000186810001D89068
:101260008533843383330001892FD7D786C080F03C
:1012700087C081F088C082F012009368000E966EDD
:1012800094929F0EECEC0AF0B10E0001816FE00E1B
:10129000806F37EC0BF0000EC26E0E0EC16E130E97
:1012A000C06E9E9CC290010E926ECD80CD8ECD926E
:1012B000CD88CD8ABD80BD92BD84BD96CA84BA86D4
:1012C000BA84640ECB6ED09EF28EF28CCD0E4E6E32
:1012D000CC0E4F6E3E0E506E9A0E516E990E526E9F
:1012E0003E0E536E330E546E330E556E3F0E566ED9
:1012F000000E576E000E586E1E0E596E1E0E5A6E60
:10130000140E0001926F000E0001936F1200000195
:101310008C6FA7EC0AF0000E0001856F000ED9EC6F
:101320000AF000018C51200D060EF3240001856F98
:10133000060EF4200001866F09EC0AF0010E000190
:10134000856F000ED9EC0AF000018C5100018A6F04
:101350008B6BD89000018A378B3700018A3B8B3B1F
:10136000F00E8B178A510F0B8B13F00E8A17100E8D
:1013700000018A27000E8B23060E00018A2500013A
:10138000856F060E00018B210001866F09EC0AF0C3
:10139000120031D08150D8B41200010E5C6E000EE4
:1013A0005B6E81CF5DF0120081505D18D8A407D02C
:1013B0005B2A0A0E5B641200020E5C6E1200000EC5
:1013C0005C6E12008150D8A41200030E5C6E1200F5
:1013D0005DC097F0000E5C6E000E5B6E000E5D6EE1
:1013E0001200000E5C6E000E5B6E000E5D6E000E55
:1013F0000001976F12005C50000AD8B4CBD7010AE5
:10140000D8B4D2D7030AD8B4DDD7010AD8B4E0D70C
:10141000E8D7000E0001896F17D000018951010D36
:1014200085C087F086C088F0F35000018727F4500C
:101430000001882387C0F6FF88C0F7FF0800F55039
:1014400023EC0BF00001892B00018951010D85C0AF
:1014500087F086C088F0F35000018727F450000120
:10146000882387C0F6FF88C0F7FF0800F550000901
:10147000D8B41200D2D79550C00B956EE00E000183
:10148000866F6A0EE82EFED7862FFCD7000E00016D
:10149000876F040E0001876501D010D000018751CD
:1014A000010D010EF324F66E060EF420F76E08000F
:1014B000F5502DEC0BF00001872BEBD7A7EC0AF0D1
:1014C000120000EE92F0070EEE6AE806FDE100EE73
:1014D0004EF0160EEE6AE806FDE19C0EF66E160E54
:1014E000F76E000EF86E00EE99F010EE04F00900B1
:1014F000F5CFEEFFE550E150FAE164906492000E02
:10150000F86E00015EEF03F00001816F000E000134
:10151000826F16D0000E0001836F180E00018365E4
:1015200001D00CD0680E0001806FE40EE82EFED7CB
:10153000802FFCD700D00001832BEFD70001822B36
:10154000000181510001825DD8B01200E3D7010E85
:101550002DEC0BF00D0E0001856FC30EE82EFED7AB
:10156000852FFCD700F0020E2DEC0BF00D0E0001C4
:10157000856FC30EE82EFED7852FFCD700F0120032
:101580000D6E000E0C6E0DAE03D00D6C010E0C6EC8
:101590000D50016E026A036A8E0E046E0CC005F0D7
:1015A00046EC08F001C009F002C00AF003C00BF0DD
:1015B00012000001866F000185510001D8A402D0FD
:1015C000800E01D0C00E0001856F00018551000121
:1015D00086252DEC0BF012000001806F0001805178
:1015E0007F0BD56E000ED76E000ED66EF294000102
:1015F00080AF02D0F28A01D0F29AD58E12000C6E22
:101600000C50016E026A036A8E0E046E000E056EA7
:1016100046EC08F001C009F002C00AF003C00BF06C
:1016200012001D501E101F10D8B406D0000E1D1A37
:10163000000E1E1A800E1F1A1DC01DF01EC01EF0C7
:101640001FC01FF012000001846F010E0001806FA7
:101650000001845117EC05F012000001846F000EA8
:101660000001806F0001845117EC05F0120080C06A
:1016700082F081C083F083C0D7FF82C0D6FF120002
:1016800001C003F002C004F004C0D7FF03C0D6FFBE
:101690001200D388D38AD38CD3821200B206A60656
:020000040020DA
:08000000FFFFFFFFFFFFFFFF00
:020000040030CA
:0E000000FF021F1EFF8181FF0FC00FE00F40A7
:00000001FF
